S0180000586D6567615F426F6F744C6F616465722E73726563D0
S21401000055C0000063C0000061C000005FC0000072
S2140100105DC000005BC0000059C0000057C0000072
S21401002055C0000053C0000051C000004FC0000082
S2140100304DC000004BC0000049C0000047C0000092
S21401004045C0000043C0000041C000003FC00000A2
S2140100503DC000003BC0000039C0000037C00000B2
S21401006035C0000033C00000BCC00000F5C0000071
S2140100702DC000002BC0000029C0000027C00000D2
S21401008025C0000023C0000021C000001FC00000E2
S2140100901DC000001BC0000019C0000017C00000F2
S2140100A015C0000013C0000011C0000011241FBEBF
S2140100B0CFEFCDBFDFE2DEBF21E2A0E0B0E201C0BC
S2140100C01D92A732B207E1F7B8D3EEC499CF3BB77A
S2140100D08BBFFB0186913BBF08953BB78BBFFB01EE
S2140100E0879196913BBF089542E076C041E074C087
S2140100F08093C00188278093C1018093C20147E0A5
S2140101005BD0CB0108958093C40148E055C080912F
S214010110D00108953BB748E1DCC43BB74AE1D9C4F6
S2140101203BB740E2D6C43BB78BBFCB0142E2D1C45A
S2140101303BB70B0143E2CDC43BB76BBFFA0119BE17
S214010140DC0140E04093CA0150E8879197918D9376
S2140101509D935A95D1F73BBF08953BB78BBFCB0113
S21401016044E2B7C43BB78BBFCB0145E2B2C43BB751
S21401017046E2AFC43BB78BBFCB014AE2AAC43BB74A
S2140101808BBFCB014CE2A5C43BB78BBFCB014DE285
S214010190A0C448E311C049E30FC028ED2093340002
S2140101A021E02093CC0108952091CF0127FDFCCFBB
S2140101B022272093CA0108954093CA0128ED31E011
S2140101C0209334003093CB016091C4017091C50136
S2140101D08091C60199270895FC014093CA01849134
S2140101E008951F920F920FB60F9211248F93EF93DB
S2140101F0FF93E0ECF1E085858C7F8587FF91EF9199
S2140102008F910F900FBE0F901F901895EF92FF924F
S2140102100F931F93CF93DF9320E2629F7001112407
S2140102208C01C0E0D0E0F80161918F01CE018E0D06
S2140102309F1D21D42196C032D105A9F7CDB7DEB7CF
S214010240E6E005C470E09B0140E2849F200D311D6D
S2140102501124C90108C408951F920F920FB60F9278
S21401026011248F93AF93BF93EF93FF93E0ECF1E0EC
S2140102708585837F858780910520809348008091BE
S2140102800620A0EAB0E08C938091042012968C930D
S214010290809107208587809103208FBFFF91EF9182
S2140102A0BF91AF918F910F900FBE0F901F90189531
S2140102B0E0EAF0E08281806498ED94BF828308953D
S2140102C0E8E4F0E08081809305201082E0EAF0E027
S2140102D08081809306208281809304208281887F9A
S2140102E0846082838FB7809303207894E0ECF1E0FA
S2140102F08585809307200895A4E0B0E0E1E8F1E861
S21401030091C369837A838B839C83DADF69817A81DF
S2140103108B819C8127DF2496E2E09DC3D1DF27CF26
S2140103200895CF92DF92EF92FF92CF93DF936B0106
S2140103307C01EA01C5DFBE01C601FADEDF91CF917D
S214010340FF90EF90DF90CF900895E0E4F6E088E02C
S21401035081838583E0ECF8E081E28683178212824E
S2140103608CE1838383E0848308959091C10895FF8F
S214010370FCCF8093C0080895E3ECF0E2119281E28D
S214010380E732F807D9F70895FF920F931F93CF939B
S214010390DF93C0910820D091092085E0CC0FDD1FA6
S2140103A08A95E1F703E410E2F12C6F2D8C2F4ADFDA
S2140103B0F80181938F01F394F0E2FF12F6CFCDB7E7
S2140103C0DEB7E5E045C3CF92DF92EF92FF92CF937F
S2140103D0DF93609108207091092080910A20909106
S2140103E00B2027E0660F771F881F991F2A95D1F7E4
S2140103F0C3E4D0E26B017C012FEFC21AD20AE20AF3
S214010400F20A65DE899380E2C33CD80719F0C7017A
S214010410B601F0CFDF91CF91FF90EF90DF90CF90B4
S21401042008958F929F92AF92BF92CF92DF92EF92F2
S214010430FF928090082090900920A0900A20B0900A
S2140104400B2037E0880C991CAA1CBB1C3A95D1F7E7
S2140104502FDF64DFA9DEC12CD12C7601F601ED5B1E
S214010460FF4D40815181C701B6015BDF9DDE82E011
S214010470C80ED11CE11CF11C80E8C816D104E104A9
S214010480F10461F7C501B40137DF8EDEFF90EF900E
S214010490DF90CF90BF90AF909F908F9008958091FE
S2140104A0C3208234E9F48091C4208F36C9F4809148
S2140104B0C5208F36A9F48091C620843789F48091AF
S2140104C0C720893469F48091C8208E3649F480911A
S2140104D0C920893629F481E09091CA20943709F021
S2140104E080E008958091C3208634A9F48091C420C9
S2140104F08C3689F48091C520813669F48091C620B6
S214010500833749F48091C720883629F481E0909199
S214010510C820973509F080E008958091C32085347E
S214010520C9F48091C4208534A9F48091C520803512
S21401053089F48091C620823769F48091C7208F366E
S21401054049F48091C8208D3629F481E09091C92024
S214010550973509F080E008958091C320853469F4C9
S2140105608091C420883749F48091C520893629F4C2
S21401057081E09091C620943709F080E0089580E0EC
S21401058040E050E0BA019091C10897FD19C04F5F55
S2140105905F4F6F4F7F4F08C0F901ED53FF4D9083BA
S2140105A08F5F40E050E0BA019AE69A95F1F700C0F5
S2140105B0403A96E8590791E06907710521F70895D1
S2140105C09091C008282F30E09D3031F7F901ED53A6
S2140105D0FF4D1082089590ED980F9A3028F08753BA
S2140105E0803118F08FEF0895892F0895EF92FF92CA
S2140105F00F931F93CF93DF93F12C03EC10E2CF2DD3
S214010600CC0FCF5FF80101900020E9F73197E35C4A
S214010610F042D0E0CE17DF07B8F4CD53DF4D888126
S214010620DADFE82EE29440EFE4228981D4DF8F3FBF
S21401063019F480E092E60AC0EF2DF0E0E45FFF4D8A
S2140106408E298083F394DBCF8F2D9BE6CDB7DEB763
S214010650E6E0FDC19091022091110DC0E0910120CC
S214010660F0E0E45FFF4D809100208195908198171E
S214010670D1F083E608952091002080910120382F43
S214010680390FE82FF0E0E45FFF4D9081920F8F5F06
S214010690831307C0909300208093012010920220BC
S2140106A0DDCF292FEECF8BE608954F925F926F92A2
S2140106B07F928F929F92AF92BF92CF92DF92EF92EC
S2140106C0FF92CF932B013C0180910220882309F4ED
S2140106D04AC0C0E073016201CC0ED11CE11CF11CC2
S2140106E04601570155E0B694A794979487945A9576
S2140106F0D1F7609108207091092080910A2090918D
S2140107000B2086169706A806B90661F083E490E2E8
S2140107107DDD8092082090920920A0920A20B09256
S2140107200B2032DEE091012081E08E0F80930120C4
S214010730F0E0E45FFF4D908180910020890F809367
S2140107400020B701A6014F71552766277727FA01C2
S214010750ED5BFF4D9083CF5F8091022081508093A7
S21401076002208111B7CFCF91FF90EF90DF90CF900D
S214010770BF90AF909F908F907F906F905F904F90BB
S2140107800895A4E0B0E0E6ECF3E841C12091022030
S214010790222309F44FC0712C6B017C01C70CD11CBC
S2140107A0E11CF11C46015701E7E0B694A794979423
S2140107B08794EA95D1F7009108201091092020919D
S2140107C00A2030910B2080169106A206B30691F0FE
S2140107D069837A838B839C8324DE8092082090929F
S2140107E00920A0920A20B0920B20EDDD9C818B811E
S2140107F07A816981E091012021E02E0F209301206A
S214010800F0E0E45FFF4D308120910020230F20931C
S2140108100020E894C7F8DD24EE24FF24F601ED5B02
S214010820FF4D3083739420910220215020930220A3
S2140108302111B2CF2496EDE003C1A0E0B0E0E2E2E0
S214010840F4E8EAC0C8EDC4BF80E48093A2007DDD71
S21401085093DD95DE24DE811105C0C4BF1092A2008F
S2140108600C9400008FEF80933E2012E001E084DDBF
S2140108708BE67BDD84DE70DE8111AEC033DE88233D
S21401088061F000933E2010920820109209201092E9
S2140108900A2010920B2097DDEACF3FDE882361F015
S2140108A010933E20109208201092092010920A20E0
S2140108B010920B2069DDDBCF1092012097DE923675
S2140108C011F482E647C0E0910120A1E0AE0FA093AB
S2140108D00120CE2FD0E0C45FDF4D98813BEF380F6B
S2140108E030930220391711F084E634C0B0E0A45FDB
S2140108F0BF4D4C91A2E0AE0FB0E0A45FBF4D5C913E
S214010900A4E0AE0FA0930120C3E0CE0FD0E0C45FF9
S214010910DF4D2881942F950F930F920F909300200F
S21401092021111AC0C52ED42EE12CF12C80913E2027
S214010930813049F4C701B60124DF8CDE833609F025
S21401094096CF83E607C0823021F4C701B601ADDE3B
S214010950F4CF85E60ADD40C0213071F480913E2057
S214010960813011F45EDDE9CF823039F760910820DD
S21401097083E490E24BDCE1CF223059F5B0E0A45F8E
S214010980BF4D3C9126E02E0F20930120EB5FF0E057
S214010990E45FFF4D4081242F230F290F2093002071
S2140109A0875080930220C42ED32EE12CF12CD70140
S2140109B0C601F4E0880F991FAA1FBB1FFA95D1F74D
S2140109C080933F2090934020A0934120B0934220F3
S2140109D04ECF81E6CADC4BCF86E6C7DC2FEF81EE31
S2140109E094E0215080409040E1F700C0000088ED7F
S2140109F084BF81E08093790080E090E0CDB7DEB7D8
S214010A00E8E023C02F923F924F925F926F927F92BF
S214010A108F929F92AF92BF92CF92DF92EF92FF9208
S214010A200F931F93CF93DF93CDB7DEB7CA1BDB0BB4
S214010A30CDBFDEBF09942A88398848885F846E84D2
S214010A407D848C849B84AA84B984C884DF80EE80EC
S214010A50FD800C811B81AA81B981CE0FD11DCDBF2E
S214010A60DEBFED01089503D0808199270895FC012A
S214010A70E050F04F0895262FAF93BF93E0ECF1E0DE
S214010A80378537FDFDCF808391831282DC01A0502C
S214010A90B04F2C9325E3228728ED31E024BF33871E
S210010AA00196BF91AF910895F894FFCF26
S214010AACEE27FF2719BEDC0143E24093CA0150E44E
S214010ABC2DE90D901D9020933400E89532965A95A9
S214010ACCC1F711240895FC014093CA012DE9209326
S20E010ADC3400E89511243BBF08958D
S804010000FA
